:020000040800F2
:10000000380C002061020008FD5700083551000837
:1000100000000000000000000000000000000000E0
:10002000000000000000000000000000115C00085B
:10003000000000000000000001580008655C000896
:1000400073020008730200087302000873020008BC
:1000500073020008730200087302000873020008AC
:10006000730200087302000873020008730200089C
:100070002D2B0008730200087302000873020008A9
:1000800073020008730200087302000800000000F9
:10009000730200087302000873020008730200086C
:1000A000730200087302000873020008730200085C
:1000B000730200087302000873020008730200084C
:1000C00000F002F800F0BDF80CA030C80838241881
:1000D0002D18671EA246AB4654465D46AC4201D180
:1000E00000F0AFF87E460F3EB6460FCC01263342F5
:1000F00000D0FB1A3343A246AB46184708810000E4
:1001000028810000103A02D378C878C1FAD8520783
:1001100001D330C830C101D504680C6070470000BD
:100120000023002400250026103A01D378C1FBD813
:10013000520700D330C100D50B60704710B56E294F
:1001400002D100F0C3FF10BD702902D101F0FDF80B
:1001500010BD662902D107F06DF810BD652902D1E6
:1001600007F068F810BD672902D107F063F810BDE9
:10017000612902D107F066F810BD03681B0A01D39C
:1001800080231943692902D100F06AFF10BD642958
:1001900002D100F065FF10BD752902D100F060FFAB
:1001A00010BD6F2902D101F07BF810BD782902D172
:1001B00001F0B8F810BDE92902D101F017F810BD1F
:1001C000E42902D101F012F810BDF52902D101F0A5
:1001D0000DF810BDEF2902D101F06EF810BDF8291D
:1001E00002D101F0ADF810BD0368DB0901D3802313
:1001F0001943632902D101F070FF10BD732902D1A8
:1002000001F073FF10BDE32902D101F07DFF10BDA5
:10021000F32902D101F080FF10BD002010BD1FB5F1
:1002200002F062F804000020002106F0E3FE401C0A
:1002300060600020002106F0C7FEE0601FBD10B521
:1002400010BD02F029F81146FFF7E9FF06F0E2FAC7
:1002500002F0BEFB03B4FFF7F2FF03BC02F05EFC4A
:100260000748804707480047FEE7FEE7FEE7FEE74E
:10027000FEE7FEE704480549054A064B70470000C3
:10028000395D0008C100000838060020380C002045
:1002900038080020380800204343514330B55C182B
:1002A000010C130C0D4692B25D4380B251432C19E0
:1002B000054655430A0C09044D1962415843010C87
:1002C00000044019514130BDFEB5044610460D46AC
:1002D000184373D0A6468C460020A41A01469D41BF
:1002E00067D36646002701243D46B61A9D4102D3D6
:1002F00013463A462124654676462F04360C3E4383
:100300002D0CB61A9D4104D3150C1B042B4312046B
:100310001034654676462F06360A3E432D0AB61A35
:100320009D4104D3150E1B022B431202083465466F
:1003300076462F0736093E432D09B61A9D4104D350
:10034000150F1B012B431201241D65467646AF078E
:10035000B6083E43AD08B61A9D4104D3950F9B00E5
:100360002B439200A41C65467646EF0776083E4371
:100370006D08B61A9D411AD392185B41641C16E0B1
:100380000018764665464941B71A9D410191009093
:1003900009D36046B11A98418E4684460098019967
:1003A0000025401C6941DD0752082A435B08641E92
:1003B000E6D57246634603B0F0BDFFE7204628430A
:1003C00007D00020C0430146C046C04622462B4607
:1003D000F1E700200146F7E70FB41CB5084B06AA69
:1003E0007B4469460090059800F089FE0446002091
:1003F000694600F097FE20461CBC08BC04B01847B4
:10040000410D000030B5441C03E00178401C002978
:100410000DD08107F9D10B4BDD0104C8D11A9143EE
:100420002940FAD0001B0A0603D0C01E30BD001BB5
:1004300030BD0A0401D0801E30BD0902FCD0401E30
:1004400030BD000001010101D2B210B513029A18AB
:1004500013049A1800F00EF810BD01E004C0091F43
:100460000429FBD28B0701D50280801CC90700D06C
:100470000270704700290BD0C30702D00270401CE5
:10048000491E022904D3830702D50280801C891EDD
:10049000E3E70022EEE70022DFE700000022030985
:1004A0008B422CD3030A8B4211D300239C464EE08F
:1004B00003460B433CD4002243088B4231D303094B
:1004C0008B421CD3030A8B4201D394463FE0C309FD
:1004D0008B4201D3CB01C01A524183098B4201D315
:1004E0008B01C01A524143098B4201D34B01C01A00
:1004F000524103098B4201D30B01C01A5241C30878
:100500008B4201D3CB00C01A524183088B4201D3E6
:100510008B00C01A524143088B4201D34B00C01AD2
:100520005241411A00D201465241104670475DE0E7
:10053000CA0F00D04942031000D3404253409C46AA
:10054000002203098B422DD3030A8B4212D3890167
:10055000FC2212BA030A8B420CD3890192118B42FE
:1005600008D3890192118B4204D389013AD09211A8
:1005700000E08909C3098B4201D3CB01C01A524163
:1005800083098B4201D38B01C01A524143098B422C
:1005900001D34B01C01A524103098B4201D30B0115
:1005A000C01A5241C3088B4201D3CB00C01A52413A
:1005B00083088B4201D38B00C01A5241D9D2430821
:1005C0008B4201D34B00C01A5241411A00D201465E
:1005D0005241104663465B1001D34042002B00D5C8
:1005E0004942704763465B1000D3404201B505495C
:1005F000002802DC491C084000E00846C046C0460E
:1006000002BD00BFFFFFFF7F7047704770470000CB
:100610000246C80FC00781434B0030B54B405B001A
:100620009B0D20D01923DB06C91801231B05994215
:1006300020DB0324A40704251346AB400BD3002B77
:1006400004D1EB0613409B00E34204D40124640769
:10065000002312195941FF231B0599420BD2C900EF
:100660000143500F09E0CB0204D5014308030243C4
:1006700005D0054830BDFF21C905084330BD0846F7
:1006800007210905884330BD0000C07FF0B5F94D52
:100690000C091E092C402E402F468BB0A7437DD05D
:1006A000B543FCD0002E7AD0002CFCD00D465D4026
:1006B000ED0F2543AC1BFF25AD0464190894C5025A
:1006C000440DC9022143500DDC0204430120C00740
:1006D00001430443D2020191200C110C00958C4679
:1006E000010423468B430A9161460904E24D8A4383
:1006F0000991010A7D4449198039097805464D431D
:1007000001266D18F605751B6943C90C640B891C1D
:100710004C436418B5012C1B250C2E04B4434C43E8
:100720004D43210C691889090591009DE90701D005
:100730000121C90704912C4601996708CD072F4371
:100740004C08059DE10B4D432D0C2946664675432B
:1007500002950D4645432E46029D7D1BB4410095F2
:100760000D465D4301942C0C2F040D465543AE46B7
:100770002D0C3D43029503947546049C2D04641B87
:10078000049406D2029C039D641C002675410395C7
:10079000029401AC70CC009F7D1B01E03EE162E160
:1007A000B44109040095079101940599A408614397
:1007B000090C0C464443650BE7040C46664674433B
:1007C000A646640B3C43039502947446049DE404DE
:1007D0002C1B049406D2029C039D641C00267541C8
:1007E0000395029401AC70CC009F7D1BB441019431
:1007F0000C465C430095650FE7000C465443A64643
:10080000640F3C43039502947446049DE4002C1B42
:10081000049406D2029C039D641C00267541039536
:10082000029401AC70CC009F7D1BB441AE09AF06B1
:10083000049DC900AD092F43049DA406AD0604958F
:10084000079D344369180791059DE10B4D432D0C1D
:1008500029466646754302950D4645432E46029D40
:100860007D1BB44100950D465D4301942C0C2F0473
:100870000D465543AE462D0C3D43029503947546F7
:10088000049C2D04641B049406D2029C039D641CEA
:10089000002675410395029401AC70CC009F7D1B2E
:1008A000B44101948C050694079C890A611800954F
:1008B0000791019C0599A4086143090C0D46454325
:1008C000680BEF040D46644665436C0B3C43049F84
:1008D000ED047D1BAC4602D20025641C6841009EDD
:1008E000019D371B85410846584301950C46460F2C
:1008F000C5005443600F28436546E4002C1B02D218
:100900000025401C6E41019D3F1AB5412846BD0996
:10091000800628438446A009BF064E020699A40615
:1009200076180743079D002068410A9907901943EC
:100930000020099B00906046FF1913434041E20FDD
:1009400064003A43A4460446D71A8C41A04203D916
:100950000120009020463A46C70F94184041624655
:10096000D20F2243644664000494009CBE46640097
:10097000D71AA446044602978C417746002F01D12E
:10098000A04204D96046401C8446029A2046C40F07
:10099000A64694184041049A0546D20F2243644665
:1009A0006400D31A8D417146002901D1A84202D9B1
:1009B00028461A46641C10430122002800D0164322
:1009C00061020020079B891904465C410223002C28
:1009D00002DB491813466441089DCE0A2D145D19A7
:1009E0004B056705E10A2C050D1908993E43C90717
:1009F0006940002B08D0934006D30022761C514159
:100A0000002B01D1760876001C4A002D43DB1542ED
:100A100041D0AA433FD030460BB0F0BD06180D467A
:100A20004D41174C7642AC411AD395181C465C4197
:100A3000134A6D42A24113D3012252054C00D44205
:100A40000AD15C00D4420BD04B4002D59202114334
:100A5000E2E749004908DFE75940C90FC90718E034
:100A600000200849D8E7054801420DD10342F7D0DC
:100A7000F2E700000000FF075C6B00000000F07F61
:100A80000000E0FF0000F87F114859400143C01208
:100A900041400020C0E70123089A9B069A4205DCEA
:100AA000032252078918C90FC907B5E70522520763
:100AB0008918074A1143D2125140ADE770B5154667
:100AC0001C4602460B4628462146FFF7DFFD70BD57
:100AD000FFFFFF7F1F22030C02D10F22000402D070
:100AE000030E03D004E00020014670470002083ADC
:100AF000030F01D10001121F830F01D18000921E4C
:100B0000002801DB4000521E120551184205C01298
:100B1000411810467047C10FC90700D0404201225A
:100B200092071143D6E701218907D3E7F0B58B4C33
:100B30000F09254689B0BD437BD01D092646AE432B
:100B4000FAD00E465E402740F60F3E43254071D056
:100B500024012142FBD0FF24AD19A4042D1B0395D1
:100B600001252D05DB02DB0AC9022B43C90A2943F3
:100B70001E010901040F130F050121431701880B02
:100B8000820391432D098C46A90B1E438A0395438A
:100B9000B30B9A0396433F09BA0B9403A7430296FB
:100BA0002E467E430497B6464E19D7190C46019639
:100BB000544305977E43371B7646BF1B3601B64626
:100BC000BE0B361900967646BC043719009C01D33B
:100BD000641C00946400002F01D001263443029E5F
:100BE000049F754366467E430496760034196E0072
:100BF00034190094029C019E1C196643751BAE4675
:100C0000069465464519059C05956C435943754600
:100C10000891691A0191049E01465143A41B049155
:100C2000611A009C0791E10605D061090122114378
:100C300002E072E06EE06109089D00272C0A2D0693
:100C40006918049D7C412A0A2D066918019D62419C
:100C5000AC0DAD026D185441079A910D92025519D1
:100C60006141029A644658435443069B059A5A438D
:100C7000121A131B9A0E9B015B187A41010B000597
:100C8000C3185141220A200644195A419A4200D2FF
:100C9000491C01204002814203D315230226F6435A
:100CA00002E014230326F6432020C51AA940174664
:100CB000AF40DA400A4320460399D840091473181C
:100CC00019055118039A3843D2075140AC4009D056
:100CD0000122944006D30022401C5141002C01D136
:100CE000400840001E4A934212D301220398920604
:100CF000904207DB0520400709181A480143C0123B
:100D0000414004E0032040070818C10FC907002034
:100D100009B0F0BD0020F107FAE705180C464C4178
:100D200011486D42A04115D394181A465A410E48F5
:100D3000644290410ED301204A004005824209D30B
:100D40005A00824206D35940C90F084AC9070020F9
:100D50001143DDE700200649DAE700000000FF0745
:100D6000FE070000FFFFFF7F0000E0FF0000F07FB4
:100D70000000F87F0121C9050123411842001B062C
:100D8000D3185B0E0AD0C1100722D206891840077B
:100D90005242D14201D5520089187047090208D544
:100DA0000146002A03D0C10FC90700207047104632
:100DB0007047420202D0002002497047072109050E
:100DC0000143F4E70000F87FF0B5FF252D04C609C4
:100DD000C209FF2704462E400137CB093E43484055
:100DE0002A402B400746002A6BD0002B69D0AA422C
:100DF00067D0AB4265D0002800DA32460125ED0508
:100E000029432C4309022002090AD21A4B0C7F24E1
:100E1000E31A434C000A7C44E35C7D242404121949
:100E200014145B00A218884201D3521C00E0400059
:100E300049420C465C4324115C43DB016415E31812
:100E4000040A5C43C502200D0C4644436419250A7C
:100E50005D432303EC0C0D46654300030019EB18BA
:100E60004C42A34201D35B18401CD4052018002B30
:100E700007D05B00C91804D3401C002901D14008E9
:100E800040003F2189048A4209D3002A08DC110668
:100E9000090F04D0032149074018C00FC007F0BD57
:100EA00001224100120689187F2252069142F6D291
:100EB00005214907C84201D59010F0BDFF20C005AB
:100EC000F0BD002F00DA32461648AA4207D2AB42E4
:100ED00005D21902090E17D0F80FC007F0BDFF2583
:100EE00063002D06AB42F9D84900A942F6D8AB42BF
:100EF00001D1A942F2D0A94201D1002101E0610053
:100F00004908D0050843F0BD1102090EFBD0FF20AF
:100F10000243D005F0BD0A460146104654E70000E2
:100F2000BA6400000000C07F1F22030C02D10F2210
:100F300000041CD0030E01D10002083A030F01D1B6
:100F40000001121F830F01D18000921E002801DBD7
:100F50004000521ED2055118021251181922904019
:100F600004D3491C002801D14908490008467047AC
:100F7000C10FC90700D04042012292071143D3E7B5
:100F800001218907D0E710B500F08CFC006810BD86
:100F900010B5044600F086FC046010BD70B5044630
:100FA00085690068C10601D5302600E02026C0070B
:100FB00007D070BD62683046A1689047206A401C27
:100FC00020626D1EF6D570BD70B504468569007847
:100FD000C00707D170BD6268A16820209047206AD1
:100FE000401C20626D1EF6D570BD09684A0501D50A
:100FF00040B27047C905FCD500B2704709684A0580
:1010000001D5C0B27047C905FCD580B2704770B534
:101010000C460546012A05D02878800600D5EA69E5
:10102000002302E0012305E05B1C934202D2E05C56
:101030000028F9D1A869E618C01AA861286AC01862
:1010400028622846FFF7AAFF04E06A682078A968AA
:10105000641C9047B442F8D32846FFF7B5FF70BD33
:10106000F7B5002575291068009914A611D0FFF76F
:10107000BCFF002802DA404211A608E00099096886
:101080008A0701D50FA602E0490704D50EA601255F
:1010900001E0FFF7B3FF009F0024243704E001F0D4
:1010A00060F830313955641C0028F8D12B4632469F
:1010B0002146009800F037FCFEBD00000000000053
:1010C0002D0000002B0000002000000011680268C5
:1010D000006A530501D5087009E0D30501D50880E1
:1010E00005E0130602D5C21705C100E00860012023
:1010F0007047000001694A1C02610878704700B51A
:101100008FB0029100210591054901937944039123
:1011100011460490684600F025F90FB000BD0000AC
:10112000E5FFFFFF0A681070521C0A60704700005C
:10113000F7B50446154686B02B487844002703C807
:101140003E460090019111E007986A467100415AAD
:1011500002A800F0E5FF411C07D02178890603D5DD
:10116000E269391891420ED83F18761C2078800623
:1011700002D5E069B84206DDAE42E5DB07987100B2
:10118000405A0028E0D1A069C01BA0612046FFF7AB
:1011900005FF154878445A3803C800900020019193
:1011A00016E041006A460798415A02A800F0B8FFCD
:1011B0000590401C0AD0002505E0626802A8A168DD
:1011C000405D90476D1C05988542F6D30498401CFD
:1011D000B0420490E5DB206AC01920622046FFF788
:1011E000F3FE09B0F0BD000012620000F7B5D21D99
:1011F0000025D20815A6D200F52905CA11D0002A6B
:1012000005DA00214042914111A60A4608E0009902
:1012100009688B0701D50FA602E0490701D50EA684
:1012200001251146009F0024243704E000F03EFB16
:1012300030323A55641C02460A43F7D12B463246F7
:101240002146009800F06FFBFEBD0000000000008A
:101250002D0000002B0000002000000070B50446A7
:101260000021243408E05507D2086D0F303565544D
:101270005D072A43DB08491C15461D43F3D104686A
:10128000002310A2250708D520252C400C4304D0AC
:10129000C46901230CA2641EC46100F044FB70BD4C
:1012A00010B5044621461068FFF7A8FE0023024649
:1012B0002046FFF7D3FF10BDD21DD108C9000CC9CD
:1012C000CCE700000000000030000000F8B50F4639
:1012D0000188090502D5224C7C4402E0204C7C4464
:1012E0000E3405460021243508E016071209360F92
:1012F000A65D6E541E0732431B09491C16461E4349
:10130000F3D1224604780023240705D5702F06D098
:10131000002901D00223113200F005FBF8BD0123A2
:101320001032F9E770B504460D4621461068FFF704
:1013300065FE0023024629462046FFF7C7FF70BD21
:10134000D21DD308DB000CCBC0E730B403682024E7
:101350001268234303600823C36130BC0023B5E750
:101360007C600000F3B50446002081B02062204676
:10137000E1688847002872D0252802D06268A168F9
:10138000ABE0594F00267F442046E168884720287B
:10139000054608DB312D06D2781920380078002860
:1013A00001D00643F0E7B00701D5042086430020B2
:1013B000E0610746A0612A2D0AD0284605F052FCBC
:1013C000002827D0B8000019303D0090856119E051
:1013D0000298BA00121902C8916102902046E16891
:1013E0008847012F054617D1E06900281FDA202021
:1013F00086431CE000980A218069484300994019FF
:10140000303888612046E1688847054605F02AFCA7
:101410000028EFD1012F0AD02E2D08D12046E168F7
:1014200088470546202006437F1C022FC3DBA069A6
:10143000002803DA4042A06101200643F00701D0F2
:10144000102086436C2D0BD0682D09D04C2D3CD03C
:101450006A2D38D0742D38D07A2D36D016E040E081
:10146000E1682F4620468847B842054609D16C2FCF
:1014700029D001208002E1680643204688470546BE
:1014800004E06C2F1DD0FF2001300643002D28D032
:1014900028464138192803D80120C00206432035C8
:1014A000204626602946029A1646FEF747FE002887
:1014B00010D001280BD0F61DF008C00008300290B3
:1014C00055E74020E1E78020D5E70020D3E7361D2F
:1014D00002964CE762682846A1689047206A401C43
:1014E00044E7206AFEBD0000F65F0000F0B50C4640
:1014F000871A9C410D46861A9D4103D2C01BA1410B
:10150000D21963410D0D1F0DC94EEC1BAE435CD0CB
:101510007F057F0D0026002F51D02D05AC46A94335
:10152000DD020123ED0A1B051D4320231B1B24D4D0
:101530001746E740381871412F46E740CC199D40C7
:101540002818314661410C0D27D161449A4013D5CA
:101550000023401C594152000ED140084000012296
:101560004B005205D34207D305204007C14201D5A5
:10157000B04900E0B0493046F0BD6B00002A00D011
:1015800001229A181F23203C1B1B01D5002302E0D7
:10159000E540281871410C0DD7D001242405091904
:1015A000C407CD0740084908E40F28436144002CD4
:1015B000D5D00024401C61419A40D0D1CDE76A05C6
:1015C000520DD9D1C90FC907D5E79C4D4E0000284F
:1015D00001D0012400E0002434195F00002A01D06A
:1015E000012600E00026BE19954FAC420CD8AE4251
:1015F0000AD8B44206D001256D05EC42BCD0104695
:101600001946F0BD9942FCD000203946F0BDF0B536
:101610001FB40C460F46811A9F412546861A9D41EC
:1016200006D20125ED076F40401ABC4152187B419C
:10163000210D1E0D8D1BAC467D4D8D437ED0750555
:101640006D0D7CD00D05AE46AC431B031B0B794DD5
:1016500052429D41202366469B1B14D31746F740F8
:10166000381800260090744160462F460741E4195F
:1016700000989D402818664116D4714671189A400A
:1016800025D5012320E093182A466A415200002BF9
:1016900000D0521C1E23203E9B1B002B61DD3541D8
:1016A000EE1728186641E8D5001876415B1C9A4071
:1016B00000D3401C4B05F3181524E34010D3002B36
:1016C00052D071467118D30FC01802D3491C05B00F
:1016D000F0BD0123DB079A42F9D140084000F6E74C
:1016E00001225205B21801D1002853D00123CC0A9F
:1016F000DB029943891E002A08D1020C03D0020C98
:101700000004103902E00246002020390023550B66
:1017100005D112020823550B01D152010D23550C9E
:1017200001D112011B1DD50C01D192009B1C150D7E
:1017300001D152005B1C2025EE1A01E02CE022E0D2
:101740000546F54015439840CA1AE1076918130584
:10175000C918002ABBDA032040070818C10FC907BF
:101760000FE071466118B2E7F107400808437110B5
:1017700071444A000CD001235B059A42A7D2C90FDD
:10178000C9070020A3E74905490D26D1002001E043
:101790000028F4D100219AE7284D6600002801D0E6
:1017A000012100E0002171185F00002A01D001260C
:1017B00000E00026BE19224FA94210D8AE420ED832
:1017C000B14208D001256D05E94206D01946A802AC
:1017D000414010467BE79C4201D0214677E700203C
:1017E000394674E710B50C465C4005D50124E40782
:1017F0006340FFF70CFF10BDFFF778FE10BD30B45B
:101800000C465C4004D50124E407634030BC6DE61F
:1018100030BCFCE670B50124E40761400D465D4034
:1018200002D4FFF763FE70BD6340FFF7F0FE70BDAA
:10183000FF0700000000F0FF0000F07F0000E0FF65
:101840000000F87F70B505464800440D124B00209B
:10185000002C0AD0634008D09A4206DA6642B242AF
:1018600003DD12054019514170BD002C08D0002B3A
:1018700009D0C90FC907002AF6DB084A114370BD19
:10188000C90FC90770BD28460A03104302D00020C3
:10189000034970BD284670BDFF0700000000F07FBF
:1018A0000000F87F00487047180000200B4670B514
:1018B000024689078008084319469D08141AA94161
:1018C00025090807054308092C194841250A01067E
:1018D0000D43010A2C194141200C0D0428430D0C25
:1018E00000194D41002140194D41C00869070843C6
:1018F000E908840F8D002543840024184D412419E4
:101900006D41121BAB4107E00925ED432C11521923
:1019100063410024401C61411C460A250026551BDA
:10192000B441F1D270BDFFB504460D4681B02430FC
:1019300000902168880604D51022E0699143216057
:1019400000E00120A84201DD471B00E000270498C9
:10195000A1697A191018081AA0612078C00602D46B
:101960002046FFF71BFB002608E003986268A16889
:10197000805D9047206A401C761C20620498864255
:10198000F3DB2078C0060AD52046FFF707FB06E008
:101990006268A16830209047206A401C2062384667
:1019A0007F1E0028F4DC07E000986268A168405DB3
:1019B0009047206A401C206228466D1E0028F3DCF8
:1019C0002046FFF701FB2078000602D5022005B073
:1019D000F0BD0120FBE70000FFB50C461E468FB0AE
:1019E00003CA089009914F007D0D00D16D1E0021A2
:1019F00008460020C0460321099A89050840002AAC
:101A000003DA8200801840080840800D01280A90FF
:101A100002DD0020C0430A90089807430DD0F0482B
:101A2000F049281848430714189800281DD075421B
:101A3000291E1DDD0A9842421BE01898012802D099
:101A40000020302104E00020F24305E02154401C36
:101A5000B042FBDB30460022189B002121540F9935
:101A60008B600A60486013B0F0BDBD1B6D1CDFE7E2
:101A70000A9A002900DA69420BA800F07DFC0BAB42
:101A800007CB03AB07C30899099800F0E1FC6B464C
:101A900007C30146D4480918002D00910BDDD24937
:101AA00003980A9A49424018002303A90390684604
:101AB00000F03EFF08E003990A9A0023081803A9E2
:101AC0000390684600F0DEFE6B4607C30004000C7E
:101AD00003D00020C043410800E01046189A002AB5
:101AE00003D00022009215461EE0751E05D4FFF7B4
:101AF000DDFE303262556D1EF9D50122084307968E
:101B000002D000227F1C04E02078302801D100227E
:101B10007F1E002A069787D01EE0112D07DAFFF7F7
:101B2000C5FE303262556D1C02460A43F5D10843AA
:101B300003D00098002819D00EE00021681E05E0AF
:101B4000235C625C63542254401E491C8142F7DBD3
:101B5000A81B401E07950690079A18990020A054CC
:101B60000F98079B069A81600CC07CE71126002025
:101B7000189059E7D21DF0B50D460446D10893B030
:101B8000C90003C90C900D9104F0DCFF02460D98CA
:101B9000C00F01D02D2007E02068810701D52B2040
:101BA00002E04007C00F4001032A0F9001D0072A2E
:101BB00005DB03462946204600F09AFB0EE120781B
:101BC000800601D5E76900E006272846652D04D088
:101BD000662814D0672D69D12DE00020112F0090C8
:101BE00001DB112300E07B1C0CAA03A910A8FFF75E
:101BF000F3FE1199002610987D1C0E9142E0012001
:101C00003B460CAAC0070B900120009003A910A826
:101C1000FFF7E2FE119D12981099002600280E95FC
:101C200001D1781C0D18781B02D446427D1C761E0B
:101C3000E81B00903AE0012F00DA01270020112F65
:101C4000009001DD112300E03B460CAA03A910A877
:101C5000FFF7C2FE11993D46109800260E9121789B
:101C600009070BD40E99A94200DA0D4603A9012DEC
:101C700004DD4A19203AD27F302A06D0B84201DA70
:101C8000011D04DA012100910FE06D1EEFE700282D
:101C900002DC86192D1A03E0411CA94200DD0D4625
:101CA000801B401C00900120C0070B90207800078B
:101CB00005D40098A84202DB0020C043009069468A
:101CC0000020C8720B98012102AF0337C907884270
:101CD00025D0022010902B2011900B9800280BDAB1
:101CE00040420B902D20119006E00B9800F039FA3D
:101CF00030317F1E0B9039701099481E00291090CA
:101D0000F3DC0B980028F0D111987F1E38702088E2
:101D1000000501D5452000E065207F1E387001A830
:101D2000C01BC01D0B900F98002800D00120411946
:101D30000098C01709180B980818A169081A401EC6
:101D4000A0612078C00602D42046FFF727F90F983B
:101D5000002805D06268A1689047206A401C206274
:101D60002078C00625D52046FFF718F921E0002E7F
:101D700007DB0E98B04204DD03A86268805DA168AD
:101D800002E06268A16830209047206A761C401CFF
:101D900020620098401E002800900AD100F0A4FAAA
:101DA000C06862680168405CA1689047206A401C76
:101DB000206228466D1E0028D9DC07E0626838786A
:101DC000A1687F1C9047206A401C20620B99481E26
:101DD00000290B90F2DC2046FFF7F6F8032042E6DC
:101DE00001FCFFFF104D0000E1DFFFFFD21DF0B549
:101DF00004460D46D0088DB0C000466807683146DD
:101E0000384604F09FFE0246F00F01D02D2307E074
:101E10002068810701D52B2302E04007C00F430152
:101E20006846002B037001D0012000E00020032A47
:101E30000A9001D0072A04DB2946204600F058FA10
:101E40002DE12078800601D40D2500E0E5697000C1
:101E5000400D0D2D01904BDA300D00210B900846FE
:101E60000020C046032189050840002E05DA8200C3
:101E70008018C20F1018401008408015012801DD9D
:101E80000020C043A9000023182906D39C460A4617
:101E90000123183A1B07D34003E001221205CA4070
:101EA00094460C31202902D33A46203900E03246CC
:101EB0008A40002802DD002A06D119E0002817D147
:101EC0000121C9078A4213D3194663467F185E4130
:101ED000002806D10120C007824202D1084687436C
:101EE0009E430B98310D814202D00198401C019015
:101EF0002088000502D57149794402E06F49794490
:101F000019396B460A9830221A540A980A7C401CE8
:101F10001A54401C0A900198002801DC302000E08F
:101F200031201872019A0120002A02D0644BD21885
:101F300004E072003A4302D0614A521C0192002D23
:101F400002DC2278120703D56A462E205072022046
:101F50000022864694460CE032033601120F6D1EB5
:101F60008B5C02AA13546246521C401C9446052AFC
:101F700001DA002DF0DC002202AE08E03B0F3F0149
:101F8000CB5C521C6D1E3354401C082A01DA002D14
:101F9000F4DC23689A0601D511E0401E704504DD8B
:101FA0003218203AD27F302AF7D0002807DD3218C5
:101FB000203AD27F2E2A02D11A0700D4401E002DCB
:101FC00003DD3E223254401C6D1E497C3154019980
:101FD000401C002906DA2D21471C3154019840424B
:101FE000019003E02B21471C315401987D21C90049
:101FF000884206DBFEF75CFA3030F0557F1C019119
:1020000001E0642808DB01986421FEF751FA3030C2
:10201000F0557F1C019101E00A2806DB01980A2196
:10202000FEF746FA3030F0557F1C01980A21FEF782
:102030003FFA3031F1550A98A1697F1C7A191018BE
:10204000081AA0612078C00602D42046FEF7A6FF39
:10205000216A6E460A980818206204E062683078A7
:10206000A168761C90470A98401E0A90401CF5D142
:102070002078C00602D52046FEF790FF02AE09E0A8
:102080003078761C3E280DD06268A1689047206A9F
:10209000401C20627F1EF3D22046FEF795FF0DB054
:1020A0000320F0BD206A4019206203E06268A16845
:1020B000302090476D1EEDD3F8E70000B7540000C4
:1020C00001FCFFFF10B54369002B02D0C046C0469B
:1020D00001E0FEF79CFF012010BD1278014624317B
:1020E0000A7000224A700122ECE711680022D243F4
:1020F000E8E710B54369002B02D0C046C04601E0B6
:10210000FFF716F8012010BD1288014624318284A1
:102110000022C2840122ECE711680022D243E8E7E2
:10212000F8B516460C46054600F0D6F80368FF20C1
:102130000230C05C012807D0FF2C0FD8185D0028A2
:102140000CD001202C70F8BDFF33324621460833F5
:102150001868C71828460023B847F8BD0020C043B8
:10216000F8BD01468008081A02091018020A101862
:10217000020C1018C008820012185200891A01E0DF
:10218000401C0A390A29FBD270470000F8B5264CDA
:102190004E00069DA6420AD8A64201D1002806D1CB
:1021A0005E00A64203D8A6420AD1002A08D00D2418
:1021B0002404254233D02946002000F011FCF8BD4C
:1021C0000C461C4311D4994207D0C81A02D3EFF32E
:1021D0000080F8BDEFF30080F8BD801A02D3EFF362
:1021E0000080F8BDEFF30080F8BD09242407E50066
:1021F0008B4207D0581A02D3EFF3008006E0EFF3CA
:10220000008007E0101A03D3EFF30080A04303E03F
:10221000EFF30080A043284380F30088F8BD0095C9
:1022200000F0F6FBF8BD00000000E0FF10B5FF2352
:102230001B0644009C421DD84C009C421AD8034601
:10224000124A0B4307D4401A02D3EFF3008010BDAB
:10225000EFF3008010BD081A03D3EFF30080904322
:1022600005E0EFF3008001219043C907084380F3A4
:10227000008810BD0D231B041A4204D01146002013
:1022800000F0AEFB10BD00F0CDFB10BD00000090D3
:1022900000487047180000207546FFF7F9FFAE466A
:1022A000050069465346C008C000854618B020B5F1
:1022B000FDF7E0FF60BCB64600260027C0C5C0C5DC
:1022C000C0C5C0C5C0C5C0C5C0C5C0C5403D490822
:1022D00049008D467047000010B500F005F8001D5C
:1022E00010BD00BF114D00000048704738000020AD
:1022F000F8B51F46044601230068DB0203260146A9
:102300001840072A05DB002801D017A506E017A50D
:1023100004E0002801D016A500E016A51020814396
:102320002160A069C01E002FA06101D0401EA061E5
:102330002046FEF733FE002F09D038466268A168B8
:102340009047206A401C2062C01C206206E0206A80
:10235000FAE762682878A1686D1C9047761EF8D26B
:102360002046FEF731FEF8BD4E414E006E616E0014
:10237000494E4600696E6600F7B516468AB0334886
:1023800078446C4603467C33C06F5A689B680DC422
:102390002E487844763003AC0DC80DC43720C001F8
:1023A000081837211B30FEF783F805460C46803DA0
:1023B0001B3C02D56442012000E000200027099068
:1023C00010E0E0070CD00C202049784379443246D5
:1023D0004C3941186846012300F054FA6B4607C394
:1023E00064107F1C002CECD1184F7F442E3F16E068
:1023F000E80712D02001C0190EC806910893079271
:102400000068F04201D1981908903246012306A9CC
:1024100003A800F037FA03AB07C36D10641C002D4E
:10242000E6D10998002806D032466946012303A860
:1024300000F07EFA05E001233246694603A800F069
:1024400021FA0A9B07C30DB0F0BD00004450000004
:10245000034640000A4610B5400D0BD00121C907C4
:102460000F24A40200191C0364082143540D2143C6
:10247000D20207E000210120F2E7D40F49002143F6
:102480005200401E0029F8DADB0FDB07184310BDAD
:10249000FFB50D46144685B04868516804F03AFB14
:1024A00000910190A868A16804F034FB02910390A8
:1024B000A868616804F02EFB029A12188242029208
:1024C00001D2012000E00020019A0B18D218002848
:1024D000019202D08A4202D903E08A4201D201204D
:1024E00000E000200099081800906868A16804F0D6
:1024F00011FB029A12188242029201D2012000E0DE
:102500000020019A0B18D2180028019202D08A42AA
:1025100002D903E08A4201D2012000E000200099A4
:1025200008180090286821684000490040084908C0
:102530004018FA49471814E001994000C90F0843B0
:102540000090019802994000C90F08430190029839
:1025500003994000C90F08430290039840007F1E72
:10256000039000980028E7DA0898002801D0EC4E84
:1025700000E00026B74201DA012000E00020002838
:1025800004902AD0F71BF806C00E15D0029B20211C
:10259000091A039A8B401A430392029A019BC24084
:1025A0008B401A430292019A009BC2408B400099D3
:1025B0001A430192C14000917B110DD06F46032058
:1025C000C11A03D500218200B95003E08A008100BE
:1025D000BA587A50401EF3D537460398029900281E
:1025E00000D00120014308980291002808460CD031
:1025F000002800D001200199019A490508430121D2
:10260000D20AC902D202019200E001210E9B0122EE
:10261000D207012B02D0002B03D013E0002807D1F2
:1026200020E0904204D890420CD1019B0B4209D08B
:10263000019B5918019105D10099491C009101D1C4
:102640007F1C009200280DD0102108460020C046B3
:102650000498002806D00F98002803D008210846C7
:102660000020C04628682168019B009A4840C10F9D
:102670000598C90739430EC009B0F0BDFFB587B052
:10268000099A08980899536892684068896896463C
:102690000022039317469446089A12685300099A39
:1026A0005B081268520052089A1A9E4BD4180A9A74
:1026B000002A01D0352200E04022069200220123A8
:1026C00015460492DB07059324E0002D05D17546DD
:1026D0000346039E4D1BB34109D375466646039BD3
:1026E000491B049D9841059B7519AC465F416346A3
:1026F0003B4308D0059B049EDD0776082E435B080C
:102700000496059301E0521E641EC50FED0749189B
:102710004041521C069B9A42D7DB002D04D17546DE
:10272000039A6B1A824101D203200CE0039A0B46F4
:102730006B404240134303D0014303D0012002E029
:10274000022000E0002061460191002100970291E3
:102750000A99002905D0614640020143704B01915E
:1027600002E08007002302909C4201DA012000E091
:10277000002007003AD01A1BD006C00E15D0029DCB
:102780002021019C091AC5408C402543029C8C40A5
:1027900000D001242543019C0295009DC4408D403A
:1027A00000992C430194C140009154111DD06D46F5
:1027B0000221002202290CD10320001B07E000287F
:1027C00004DB8600AE59002E00D00122401C0328F5
:1027D000F5DB081B02D588002A5004E08000285849
:1027E00010438A00A850491EE3D51C460A980028C9
:1027F00002980CD0002800D001200199019A4905C7
:1028000008430121D20AC902D202019200E001214B
:10281000109B0122D207012B02D0002B03D013E022
:10282000002807D11FE0904204D890420CD1019BB0
:102830000B4209D0019B5918019105D10099491CFF
:10284000009101D1641C009200280CD01021084690
:102850000020C046002F06D01198002803D0082180
:1028600008460020C04608980999019A009B006814
:1028700009684840C10F0798C907214382600AC010
:102880000BB0F0BD00B585B0019300920A46014639
:10289000002302A8FFF7FCFD02A807C805B000BD91
:1028A000FFB50A461F4685B00799019301230091A1
:1028B000014602A8FFF7ECFD02990398049ECA0F97
:1028C0004900D20700920F22490892028C1A002177
:1028D000002800DB0C46450013486D08844214D3E1
:1028E000079A002A04DA441E0026104DF64302E03F
:1028F00004460D460E46102108460020C046002F13
:1029000003D0042108460020C0462005E90A0843F8
:10291000009908436905F20A1143ADE602C0FFFFC2
:10292000013C0000FF3F0000FF070000FFFFFF7FAA
:1029300000B585B0019300920A460146002302A823
:10294000FFF79CFE02A807C8A8E7FFB50A461F4686
:1029500085B00799019301230091014602A8FFF772
:102960008DFE02990398049ECA0F4900D207009277
:102970000F22490892028C1A0021002800DB0C4625
:10298000450011486D08844214D3079A002A04DADE
:10299000441E00260D4DF64302E004460D460E4649
:1029A000102108460020C046002F03D0042108460D
:1029B0000020C0462005E90A08430099084369053C
:1029C000F20A114358E60000FF070000FFFFFF7FF7
:1029D00010B50446C046C0462046FDF73BFC10BD7E
:1029E000C80212D54803400F002804D0C803C043D2
:1029F000012188407047EFF30080000100090321A6
:102A00000907084380F300887047002070470000E2
:102A100010B500200249029A00F050F810BD0000E5
:102A20000000F87F10B5024800F048F810BD000023
:102A30000000C07F024670B50A4392072AD11E4D9E
:102A4000EE0104C808C9541B9443344017D0D0B2D7
:102A5000D9B2401A2106014310D190B299B2401A5E
:102A6000210401430AD110021902000A090A401A7E
:102A70002102014302D1100E190E401A70BD9A4274
:102A8000DFD010BA19BA884201D9012070BD0020E8
:102A9000C04370BD02780B78401C491C002A09D045
:102AA0009A4207D102780B78401C491C002A01D0B9
:102AB0009A42EFD0D01A70BD0101010110B50C4649
:102AC0001107090F092904D00A290AD008290CD1B5
:102AD00004E011460820FFF783FF06E0510606D503
:102AE00001E0510601D50120C007214610BDD106E5
:102AF00007D501010909CC084907000E0006044367
:102B000009E0410F20024907000A0143200E000698
:102B10001D22D14101430846E7E700000149182082
:102B2000ABBEFEE7260002007047000080B50248F9
:102B300000F00CF880BDC0469804002081B0EFF38F
:102B4000108072B60090FFE7FEE7000080B584B009
:102B50000390039801680122500592050092D14A22
:102B60009142019001D00098019001980290D748BD
:102B700000680299084213D0FFE7CA480068C00500
:102B8000002805D5FFE703204005D049086003E091
:102B90000298CE490860FFE7039800F017FAFFE7B4
:102BA00004B080BD80B58AB00990002008900790DD
:102BB0000690059004A908700998002807D0FFE73F
:102BC000099800680068C00F012804D1FFE704A934
:102BD000012008705AE109982121405C00280DD19C
:102BE000FFE70999202200208854AA490868012299
:102BF00010430860099800F06BF9FFE7099908692C
:102C000049690843089009980068CA49884240D138
:102C1000FFE70998C1688068014308980843089055
:102C20000998006900280FD0FFE70998006940283B
:102C30000AD0FFE709980069502805D0FFE70998F6
:102C40000069602824D1FFE7934908680122120334
:102C500010404242504106900868904A1043086074
:102C60000698002813D0FFE7D6480068D649FDF73C
:102C700015FC01468A4848430590FFE7059800285F
:102C800004D0FFE70598401E0590F7E7FFE7FFE750
:102C9000FFE709988069002850D0FFE7099800688D
:102CA0008049884206D1FFE70898012109030843BB
:102CB000089042E0099880690390012804D0FFE75A
:102CC0000398022806D006E008980121490308432A
:102CD000089031E0FFE700F085FB7349884207D197
:102CE000FFE700F087FB01210903884219D0FFE7C5
:102CF00000F078FB6D49884207D1FFE700F07AFBCE
:102D00000121090388420CD0FFE700F06BFB674903
:102D100088420AD1FFE700F06DFB6549884204D183
:102D2000FFE704A90120087005E0089801210903C4
:102D300008430890FFE7FFE7FFE7FFE7099800680F
:102D4000584988420BD1FFE70998006800685A4942
:102D50000840089908430999096808600AE0099839
:102D600000680068534908400899084309990968B0
:102D70000860FFE70998406801210902884207D1ED
:102D8000FFE748490868012212021043086006E084
:102D9000444908680122120290430860FFE709983D
:102DA000016801225005920501923E4A914202902B
:102DB00001D001980290029807900998007F80073F
:102DC00000284CD0FFE70998007FC006002806D5F0
:102DD000FFE7079A3B4908681043086005E0079A37
:102DE0003849086890430860FFE70998007F80062B
:102DF000002806D5FFE7079A3349086810430860A2
:102E000005E0079A3049086890430860FFE7079893
:102E10002E4908600998007F8007002806D5FFE743
:102E2000079A264908681043086005E0079A234975
:102E3000086890430860FFE70998007FC0070028F2
:102E400006D0FFE7079A1E4908681043086005E0AE
:102E5000079A1B49086890430860FFE70AE0079A51
:102E60001649086890430860079A15490868904316
:102E70000860FFE709982121405C002805D1FFE7A1
:102E80000999212201208854FFE7FFE704A8007870
:102E90000AB080BD34100240200001400110000043
:102EA000B80B0000180001404704000017040000A0
:102EB000081000008748FFFFCF6EFFFF04040140A9
:102EC00000040140080401400C04014014040140C6
:102ED00080B58AB009900020089007900690059070
:102EE0000490099800681349884220D1FFE7FFE762
:102EF0001148026802210A430260006808400390FA
:102F00000398FFE710200490032005900020019013
:102F100006900A4804A900F0C5F8019A0C20029016
:102F2000114600F076FE029800F068FEFFE70AB056
:102F300080BDC0461C0001402C100240000400501F
:102F400080B584B003900020029001A90870039816
:102F5000002807D0FFE7039800680068C00F012829
:102F600004D1FFE701A90120087027E0039821217F
:102F7000405C01281DD1FFE7039801680868012221
:102F80001043086003992122022088540D480068EC
:102F90000D49FDF783FA0146192048430290FFE7E7
:102FA0000298002804D0FFE70298401E0290F7E73D
:102FB00003E001A901200870FFE7FFE701A80078FE
:102FC00004B080BD0800002080841E0010B586B0CB
:102FD0000590264800682649087026480068406A1F
:102FE00025490988411A254801800088FDF793FD8D
:102FF00000220392224BFDF799FDFDF709FB0146E4
:1030000020480160016801200290C00704F0AAF87E
:10301000FDF7B0FE009001911B481C4903F02AFE09
:10302000039A1B4BFDF782FD024600980B4601995F
:10303000FDF72CFB039A174BFDF778FDFDF7E8FA37
:103040000299039A144B04931B789C00134B18515C
:1030500005200007090200F0AFF903980499104A0F
:1030600010600878401C087006B010BD8C04002069
:103070007800002014050020800400208204002035
:103080000000F93F90040020111A0CA1C110EA3F82
:10309000006AF84000408F40DC050020E405002075
:1030A000840400208CB00B900A91002009900890B5
:1030B0000790FFE70A9800680999C840002800D1E6
:1030C00062E10A980068099A01219140084008903D
:1030D0000898002800D153E10A984068032108406D
:1030E000012807D0FFE70A9840680321084002281A
:1030F0002CD1FFE70B9880680790099840000321C6
:1031000081400798884307900A98C1680998400051
:10311000814007980843079007980B9988600B989F
:1031200040680790099801218140079888430790DB
:103130000A984068102108400109099881400798C1
:103140000843079007980B994860FFE70A98406882
:1031500003210840032816D0FFE70B98C0680790AA
:1031600009984000032181400798884307900A98F6
:1031700081680998400081400798084307900798A4
:103180000B99C860FFE70A984068032108400228AD
:1031900020D1FFE70B980999C90889004018006AF7
:1031A000079009984007C00E0F2181400798884377
:1031B00007900A98016909984007C00E8140079856
:1031C0000843079007980B99099AD208920089182A
:1031D0000862FFE70B9800680790099841000320F8
:1031E00002468A400799914307910A99496801402C
:1031F00009984000814007980843079007980B9969
:1032000008600A9880798007002800D1B7E05F49FC
:1032100008680122104308600998032188435C492B
:103220004058079009988007000F0F2181400798A8
:10323000884307900B9805210907884203D1FFE7CF
:103240000020069038E00B985249884203D1FFE7EE
:10325000012005902DE00B984F49884203D1FFE7EC
:103260000220049022E00B984C49884203D1FFE7EA
:103270000320039017E00B984949884203D1FFE7E8
:10328000042002900CE00B99464A05200623009387
:103290009142019001D00098019001980290FFE7BF
:1032A00002980390FFE703980490FFE704980590C5
:1032B000FFE705980690FFE7069909988007000F39
:1032C0008140079808430790079809990322914382
:1032D0002F4A885034480068079008990798884317
:1032E00007900A988079C006002805D5FFE708995D
:1032F000079808430790FFE707982B4908602B4879
:103300000068079008990798884307900A98807981
:103310008006002805D5FFE708990798084307901D
:10332000FFE707982149086021480068079008993D
:103330000798884307900A9880798007002805D568
:10334000FFE70899079808430790FFE7079818498F
:103350000860184800680790089907988843079004
:103360000A988079C007002805D0FFE708990798D8
:1033700008430790FFE707980E490860FFE7FFE75B
:103380000998401C099095E60CB070473410024033
:10339000080001400004005000080050000C0050DC
:1033A00000100050001C0050080401400C040140B3
:1033B000040401400004014083B0029001A8018090
:1033C000684602700078002805D0FFE701A8008851
:1033D0000299886104E001A8008802998862FFE7E9
:1033E00003B0704705480068014908407047C0466F
:1033F000FF0F000001480068000C704700580140B2
:10340000014800687047C0463406002010B583B0FC
:103410000190009101984121405C202839D1FFE7BB
:10342000FFE701984021405C012804D1FFE702A991
:103430000220087031E00199402201208854FFE702
:10344000FFE7019941222420885401980168086807
:103450000123984308600198016808681C03A04391
:103460000860009C01980168086820430860019882
:103470000168086818430860019920208854FFE714
:103480000199402200208854FFE702A9002008701B
:1034900003E002A902200870FFE702A8007803B049
:1034A00010BD84B00290019102984121405C202817
:1034B0003FD1FFE7FFE702984021405C012804D19B
:1034C000FFE703A90220087037E00299402201209B
:1034D0008854FFE7FFE7029941222420885402988C
:1034E0000168086801239843086002980068006832
:1034F000009000980F210902884300900198010272
:1035000000980843009000980299096808600298A2
:103510000168086818430860029920208854FFE772
:103520000299402200208854FFE703A90020087078
:1035300003E003A902200870FFE703A8007804B0A5
:103540007047000080B582B000900098002804D138
:10355000FFE701A90120087074E000984121405C58
:10356000002808D1FFE700994022002088540098E5
:1035700000F0A0FAFFE70099412224208854009827
:1035800001680868012290430860009948680F2389
:103590001B06984309680861009801688868D2038F
:1035A000904388600098C068012808D1FFE700991F
:1035B00088680122D20310430968886007E00099F7
:1035C000886821229202104309688860FFE700980A
:1035D000C068022806D1FFE7009801680120C002F8
:1035E0004860FFE7009801684868184A104348603F
:1035F00000980168C8680122D3039843C860009905
:1036000008694B6918438B691B0218430968C86035
:103610000099C8690B6A1843096808600098016836
:10362000086810430860009900204864009A41230C
:103630002021D1540099086300994222885401A99D
:103640000870FFE701A8007802B080BD008000028A
:1036500010B58CB00A9009A8018008920793002049
:1036600005900A984121405C202800D014E10A9876
:103670000068806980B2C00B012804D1FFE70BA964
:10368000022008700CE1FFE70A984021405C012805
:1036900004D1FFE70BA90220087001E10A9940223A
:1036A00001208854FFE7FFE70A994122242088542B
:1036B0000A9900204864FFE70A98C068012808D1E9
:1036C000FFE709A800887849084079494018029026
:1036D00007E009A80088744908407449401802901E
:1036E000FFE702980A9909684860FFF789FE06908B
:1036F0000A980068806920210840400904A90870E0
:103700000A980068806910210840000903A9087020
:10371000FFE704A8017800200029019006D1FFE707
:1037200003A80078414248410190FFE70198C00793
:10373000002835D0FFE70798401C00281FD0FFE77E
:10374000FFF75EFE0699401A0799884204D8FFE702
:103750000798002812D1FFE70A98412120224254FD
:103760000A99486C10434864FFE70A9940220020F8
:103770008854FFE70BA90120087091E0FFE70A9841
:103780000068806920210840400904A908700A984F
:103790000068806910210840000903A90870B8E793
:1037A0000A9800688069102108400009002820D18B
:1037B000FFE70A98079B069900912021002201F05B
:1037C00001FE002804D0FFE70BA90120087067E084
:1037D0000A9801682020C8610A9941228854FFE7AD
:1037E0000A99402200208854FFE70BA900200870A6
:1037F00056E00A98079B069900912021002201F0CB
:10380000E1FD002804D0FFE70BA90120087047E084
:103810000A9801681020C8610A9801682020C861D0
:10382000FFE70598089988421BD1FFE70A980168CD
:10383000486801229203104348600A98079B069942
:1038400000912021002201F0BDFD002804D0FFE7F7
:103850000BA90120087023E00A9801682020C861A4
:10386000FFE70598401C0590FFE7059808998842F6
:1038700000D221E70A984121202242540A99486C3B
:1038800010434864FFE70A99402200208854FFE76C
:103890000BA90120087003E00BA902200870FFE7C4
:1038A0000BA800780CB010BDFF0300000028000238
:1038B0000020000210B588B00A9C069005A801807F
:1038C000049203A8038006984121405C202800D080
:1038D000E4E0FFE706984021405C012804D1FFE7BF
:1038E00007A902200870DDE00699402201208854D3
:1038F000FFE7FFE7FFF784FD029006980299009129
:103900000122D103192301F05DFD002804D0FFE757
:1039100007A901200870C5E006994122212088549A
:103920000699422210208854069900204864049980
:10393000069A51620399069A51850699486306983A
:10394000408D000A00280FD0FFE70699FF20088568
:10395000069805A909882822825C544B009301230C
:103960001B0601F005FD0FE00698408D06990885BD
:10397000069805A909882822825C4C4B00930123F4
:103980005B0601F0F5FCFFE7FFE70698408D002895
:103990005DD0FFE706980A99029A01F0B8FD002869
:1039A00004D0FFE707A9012008707BE00699486A68
:1039B0000078096888620699486A401C486206993E
:1039C000488D401E48850699088D401E088506983A
:1039D000408D00283AD0FFE70698008D002835D1A9
:1039E000FFE706980A9B029900918021002201F0CE
:1039F000E9FC002804D0FFE707A90120087051E086
:103A00000698408D000A00280FD0FFE70699FF2096
:103A10000885069805A909882822825C002300935E
:103A200001231B0601F0A4FC0FE00698408D0699C7
:103A30000885069805A909882822825C002300933E
:103A400001235B0601F094FCFFE7FFE79DE7069882
:103A50000A99029A01F00BFD002804D0FFE707A99C
:103A6000012008701EE0069801682020C8610699B0
:103A70000A6851680E4B19405160069941228854DA
:103A80000699422200208854FFE706994022002030
:103A90008854FFE707A90020087003E007A9022067
:103AA0000870FFE707A8007808B010BD002000806C
:103AB00000E800FE80B588B00790002006900590D1
:103AC000049003900290079800681349884221D11E
:103AD000FFE7FFE71148026801210A43026000681E
:103AE000084001900198FFE7032041020291122152
:103AF00003910021049105900620069005200007FF
:103B000002A9FFF7CFFA3C49086801225205104389
:103B10000860FFE708B080BD005400402C10024050
:103B20002C48027802490868801808607047C0462F
:103B30003406002080B582B001A9002008700A4A2E
:103B4000116840231943116000F010F8002804D0D8
:103B5000FFE701A90120087002E000F03FF8FFE74D
:103B600001A8007802B080BD0020024080B584B07A
:103B70000290174800680190164801787D20C00027
:103B8000FCF78CFC01460198FCF788FC01F07EF8FC
:103B9000002804D0FFE703A90120087014E0029870
:103BA000032809D8FFE702990022D04300F031F83A
:103BB00002980949086003E003A90120087003E0A6
:103BC00003A900200870FFE703A8007804B080BDB7
:103BD000080000200C0000201000002005490868A3
:103BE000012210430860E749086812071043086083
:103BF0007047C046341002403810024080B582B091
:103C0000014601A801700021405602F0ABFD02B050
:103C100080BD80B584B0034603A803700291019271
:103C200000214056029902F0B3FD04B080BD0000AF
:103C300080B586B0049001A900200870049800683F
:103C400020210840202806D0FFE70498407800078C
:103C5000002800D41FE1049800788006002801D5D0
:103C6000FFE7FFE7049840780007002801D5FFE749
:103C7000FFE7C4480068C000002809D4FFE7C14A34
:103C80001168012003071943116001A90870FFE7BB
:103C9000BD480068C00500281DD4FFE7BA49086880
:103CA0000122120210430860FFF7AAFB0390FFE70E
:103CB000B5480068C00500280CD4FFE7FFF7A0FB5B
:103CC0000399401A652804D3FFE705A9032008706B
:103CD00053E1EDE7FFE7AD48006803210A05104016
:103CE00002900298049949681140884209D1FFE77F
:103CF000029804998968032212051140884214D061
:103D0000FFE70498406803210904084088420BD16A
:103D1000FFE79E4800688003002804D5FFE705A957
:103D20000120087029E1FFE7FFE7994800680321B7
:103D30000904084002900298002851D0FFE7029839
:103D400004994968032212041140884207D0FFE712
:103D5000049800682021084020280FD0FFE702982F
:103D600004998968032212041140884238D0FFE781
:103D7000049840780007002832D5FFE78449086896
:103D8000032212049043029008680122D2041043D7
:103D900008600868904308600298086002A84078AC
:103DA000C00700281BD0FFE7FFF72AFB0390FFE7BF
:103DB00077480068012149020840400A00280DD1D7
:103DC000FFE7FFF71DFB0399401A7349884204D3AC
:103DD000FFE705A903200870CFE0E9E7FFE7FFE769
:103DE000049840780007002821D5FFE7FFE7FFE7A8
:103DF0000498806803210904084088420BD1FFE73A
:103E000062490868032213059843049A92681A408D
:103E100080180860FFE7FFE7049882680320000429
:103E200002405B49086810430860FFE7FFE7049819
:103E300000788006002821D5FFE7FFE7FFE7049818
:103E4000406803210904084088420BD1FFE74F492D
:103E50000868032213059843049A52681A40801890
:103E60000860FFE7FFE7049842680320000402406F
:103E70004749086810430860FFE7FFE701A800789A
:103E8000012807D1FFE73F49086801221207904344
:103E90000860FFE7FFE704980078C007002809D012
:103EA000FFE73C49086803229043049AD268104314
:103EB0000860FFE7049800788007002809D5FFE72D
:103EC000344908680C229043049A12691043086030
:103ED000FFE704980078400700280AD5FFE72D493E
:103EE0000868032292029043049A526910430860C2
:103EF000FFE704980078000700280AD5FFE7254966
:103F00000868032212039043049A926910430860E0
:103F1000FFE704984078C00700280AD0FFE71D4952
:103F20000868032212049043049AD269104308607F
:103F3000FFE704980078400600280AD5FFE71549F6
:103F40000868012292069043049A526A104308605E
:103F5000FFE704980078000600280AD5FFE70D491E
:103F60000868032292049043049A126A104308607E
:103F7000FFE705A900200870FFE705A8007806B054
:103F800080BDC04638100240007000400010024062
:103F9000501002404C1002408913000080B586B0DA
:103FA000049003910498002804D1FFE705A901209B
:103FB000087062E10398B349096801221140884200
:103FC00021D9FFE7AF49086801229043039A1043C3
:103FD0000860FFF715FA0290FFE7AA480068012180
:103FE0000840039988420DD0FFE7FFF709FA0299CC
:103FF000401AA549884204D3FFE705A903200870A9
:104000003BE1EAE7FFE7049800788007002809D53C
:10401000FFE7B1490868F0229043049A9268104380
:104020000860FFE704980078C007002800D1BCE0D2
:104030000498406802280ED1FFE7F3480068012188
:1040400049040840400C002804D1FFE705A90120DD
:10405000087012E134E00498406803280ED1FFE7AD
:10406000E9480068012149060840400E002804D1B3
:10407000FFE705A901200870FFE020E004984068F0
:1040800001280DD1FFE7E0480068042108408008BE
:10409000002804D1FFE705A901200870EDE00DE03C
:1040A000D9480068012149020840400A002804D18B
:1040B000FFE705A901200870DFE0FFE7FFE7FFE762
:1040C000CF49086803229043049A5268104308605D
:1040D000FFF796F9029004984068022816D1FFE78E
:1040E000FFE7C74800680C21084008280DD0FFE70B
:1040F000FFF786F90299401A6349884204D3FFE723
:1041000005A903200870B8E0EBE74DE0049840688B
:10411000032816D1FFE7FFE7B94800680C210840E3
:104120000C280DD0FFE7FFF76BF90299401A5649AA
:10413000884204D3FFE705A9032008709DE0EBE760
:1041400031E004984068012816D1FFE7FFE7AC484A
:1041500000680C21084004280DD0FFE7FFF750F954
:104160000299401A4849884204D3FFE705A9032071
:10417000087082E0EBE715E0FFE7A1480068000760
:10418000800F00280DD0FFE7FFF73AF90299401A97
:104190003D49884204D3FFE705A9032008706CE07D
:1041A000EBE7FFE7FFE7FFE7FFE70398354909681B
:1041B00001221140884221D2FFE7324908680122DA
:1041C0009043039A10430860FFF71AF90290FFE743
:1041D0002C48006801210840039988420DD0FFE770
:1041E000FFF70EF90299401A2749884204D3FFE7E6
:1041F00005A90320087040E0EAE7FFE7049800788B
:10420000400700280AD5FFE77D4908680722120207
:104210009043049AD26810430860FFE7049800783E
:10422000000700280BD5FFE7754908680722D2026E
:104230009043049A1269D20010430860FFE700F02F
:104240004FF86F490968C9B20A091049895CC8402A
:10425000124908600E480068FFF788FC014601A873
:1042600001700078002804D0FFE7019805A90870C4
:1042700003E005A900200870FFE705A8007806B054
:1042800080BDC04600200240891300005C74000815
:1042900010000020014800687047C0460800002058
:1042A00080B5FFF7F7FF564909680722120211404F
:1042B0000A0A0A49895CC84080BDC04680B5FFF73C
:1042C000E9FF4F4909680722D2021140CA0A03498F
:1042D000895CC84080BDC0460C1002406C74000868
:1042E00080B58AB046480068099009980C210840BA
:1042F00003900C2875D80398810001A04058874688
:10430000E1430008E3430008E3430008E3430008F7
:1043100035430008E3430008E3430008E343000893
:104320004F430008E3430008E3430008E343000869
:104330005543000834480068C006002803D5FFE74D
:104340003348049002E031480490FFE755E03148DB
:10435000049052E009980F2189040840810C2948F3
:10436000405C08900998032189050840800D401C95
:10437000079023480068C00300280DD5FFE7089880
:10438000244A002302931946FBF786FF029B079AF3
:10439000FBF79AFF069020E01B480068C006002843
:1043A0000DD5FFE708981A4A002301931946FBF739
:1043B00073FF019B079AFBF787FF06900CE00898B4
:1043C000124A002300931946FBF766FF009B079AE9
:1043D000FBF77AFF0690FFE7FFE7069804900CE0F2
:1043E000FFE70D48006880B2400B05900598411C1E
:1043F00001208840C0030490FFE704980AB080BD04
:104400000C100240D0810008001002400024F4008B
:1044100000093D0000127A000410024010B58AB075
:1044200008900898002805D1FFE709A90120087025
:1044300000F015FCFD4801680C2211400491006851
:10444000012109040840039008980078C00700285B
:1044500000D18DE0049808280AD0FFE704980C28C2
:1044600019D1FFE7039801210904884213D1FFE71E
:10447000EF480068012149040840400C002809D099
:10448000FFE708984068002804D1FFE709A9012048
:104490000870E4E36BE0FFE7089840680121090435
:1044A000884207D1FFE7E24908680122120410435D
:1044B000086021E0089840680521090488420BD172
:1044C000FFE7DB4908680122930418430860086885
:1044D0001204104308600EE0D54908680122130455
:1044E000984308600868184002900298086892048F
:1044F00090430860FFE7FFE7FFE70898406800285F
:104500001AD0FFE7FEF77CFF0790FFE7C848006876
:10451000012149040840400C00280CD1FFE7FEF7B8
:104520006FFF0799401A652804D3FFE709A9032004
:10453000087094E3EAE719E0FEF762FF0790FFE7EF
:10454000BB480068012149040840400C00280CD0F9
:10455000FFE7FEF755FF0799401A652804D3FFE7E8
:1045600009A9032008707AE3EAE7FFE7FFE7FFE71E
:10457000089800788007002800D4A8E00898C06850
:10458000069006A800788006002809D5FFE7A84A0B
:104590001068202108431060069888430690FFE7C2
:1045A0000498042808D0FFE704980C2841D1FFE7BD
:1045B000039800283DD1FFE79D480068042108408A
:1045C0008008002808D0FFE70698002804D1FFE7FC
:1045D00009A90120087042E3964908681F221202C7
:1045E0009043089A126912021043086090490868C3
:1045F00009229043069A10430860FFE7FFF770FE18
:104600008A490968C9B20A098B49895CC8408B4943
:1046100008608B480068FFF7A9FA014605A80170F9
:104620000078002804D0FFE7059809A9087016E370
:104630004CE0069800282AD0FFE77D490868092247
:104640009043069A10430860FEF7DAFE0790FFE7F2
:104650007748006804210840800800280CD1FFE753
:10466000FEF7CEFE0799401A032804D3FFE709A9F5
:1046700003200870F3E2EBE76E4908681F2212027C
:104680009043089A12691202104308601DE06849BD
:104690000868012290430860FEF7B2FE0790FFE72A
:1046A0006348006804210840800800280CD0FFE718
:1046B000FEF7A6FE0799401A032804D3FFE709A9CD
:1046C00003200870CBE2EBE7FFE7FFE7FFE708987E
:1046D0000078C006002800D4A1E00498002845D145
:1046E000FFE753480068012149020840400A0028BA
:1046F00009D0FFE70898C069002804D1FFE709A99D
:1047000001200870ABE24B4908680722520390432E
:10471000089A526A104308600868FF221206904304
:10472000089A126A1206801808600898406A400BBE
:10473000411C01208840C0033C490968C9B20A09EC
:104740003D49895CC8403D4908603D480068FFF725
:104750000DFA014605A801700078002804D0FFE793
:10476000059809A908707AE2FFE757E00898C06940
:10477000002832D0FFE72E490868012212021043B8
:104780000860FEF73DFE0790FFE729480068012119
:1047900049020840400A00280CD1FFE7FEF730FE2E
:1047A0000799401A032804D3FFE709A903200870DA
:1047B00055E2EAE71F490868072252039043089A26
:1047C000526A104308600868FF2212069043089A54
:1047D000126A1206801808601FE015490868012255
:1047E000120290430860FEF70BFE0790FFE71048A7
:1047F0000068012149020840400A00280CD0FFE768
:10480000FEF7FEFD0799401A032804D3FFE709A924
:104810000320087023E2EAE7FFE7FFE7FFE70898D5
:104820000078000700284FD50CE0C0460C1002406D
:1048300000100240041002405C74000808000020D0
:10484000100000200898406900281ED0FFE7FD49AD
:104850000868012210430860FEF7D2FD0790FFE7C9
:10486000F848006802210840400800280CD1FFE702
:10487000FEF7C6FD0799401A032804D3FFE709A9EC
:1048800003200870EBE1EBE71DE0F949086801221D
:1048900090430860FEF7B4FD0790FFE7F448006816
:1048A00002210840400800280CD0FFE7FEF7A8FDD1
:1048B0000799401A032804D3FFE709A903200870C9
:1048C000CDE1EBE7FFE7FFE7089800784007002815
:1048D00000D4BBE001A900200870E6480068C000D1
:1048E000002809D4FFE7E34A1168012003071943B0
:1048F000116001A90870FFE7DF480068C0050028C3
:104900001DD4FFE7DC490868012212021043086049
:10491000FEF776FD0790FFE7D7480068C00500283E
:104920000CD4FFE7FEF76CFD0799401A652804D305
:10493000FFE709A90320087091E1EDE7FFE7FFE732
:104940000898806801210902884207D1FFE7C84919
:10495000086801221202104308602EE0089880685F
:1049600000280BD1FFE7C2490868012213029843CF
:10497000086008689202904308601DE0089880680B
:104980000521090288420BD1FFE7B94908680122D5
:1049900093021843086008681202104308600AE096
:1049A000B34908680122130298430860086892021C
:1049B00090430860FFE7FFE7FFE7FFE7089880689C
:1049C00000281BD0FFE7FEF71BFD0790FFE7A84874
:1049D0000068012149020840400A00280DD1FFE784
:1049E000FEF70EFD0799401AA449884204D3FFE759
:1049F00009A90320087032E1E9E71AE0FEF700FD9B
:104A00000790FFE79A480068012149020840400AE0
:104A100000280DD0FFE7FEF7F3FC0799401A9749ED
:104A2000884204D3FFE709A90320087017E1E9E7EA
:104A3000FFE701A80078012807D1FFE7F3490868DC
:104A40000122120790430860FFE7FFE7089800780B
:104A50008006002854D5FFE708988069002829D0EF
:104A6000FFE7FFE78649086801221043086086498E
:104A700008681043086083490868520310430860BF
:104A8000FFE7FEF7BDFC0790FFE77D4800680221C5
:104A90000840400800280CD1FFE7FEF7B1FC079959
:104AA000401A032804D3FFE709A903200870D6E0C1
:104AB000EBE724E0FFE772490868012290430860B1
:104AC00070490868520390430860FFE7FEF798FCBE
:104AD0000790FFE76A480068022108404008002864
:104AE0000CD0FFE7FEF78CFC0799401A032804D38B
:104AF000FFE709A903200870B1E0EBE7FFE7FFE754
:104B00000898806A002800D1A5E004980C2872D08B
:104B1000FFE70898806A02284CD1FFE753490868EC
:104B20000122120690430860FEF76AFC0790FFE737
:104B30004E480068012149060840400E00280CD06C
:104B4000FFE7FEF75DFC0799401A032804D3FFE74F
:104B500009A90320087082E0EAE743490868FD22BA
:104B600012049043089BDA6A1C6B22435B6B1A4366
:104B7000104308603D49086801221206104308608E
:104B8000FEF73EFC0790FFE7384800680121490620
:104B90000840400E00280CD1FFE7FEF731FC0799D2
:104BA000401A032804D3FFE709A90320087056E040
:104BB000EAE71FE02D4908680122120690430860C9
:104BC000FEF71EFC0790FFE7284800680121490610
:104BD0000840400E00280CD0FFE7FEF711FC0799B3
:104BE000401A032804D3FFE709A90320087036E020
:104BF000EAE7FFE72EE00898806A012804D1FFE782
:104C000009A9012008702AE017480068039003985A
:104C10000121090408400899C96A884214D1FFE7B4
:104C200003980F21890408400899096B88420BD129
:104C3000FFE703980321890508400899496B8842DA
:104C400006D001E05010024009A90120087006E0DA
:104C5000FFE7FFE7FFE709A900200870FFE709A8C1
:104C600000780AB010BDC0460C100240001002408F
:104C700050100240381002400070004089130000BC
:104C800008100240200001403410024080B582B07C
:104C90000190019800F0BEFF02B080BD85B0039086
:104CA0000291FFE703983821405C012804D1FFE717
:104CB00004A90220087053E0039938220120885487
:104CC000FFE7FFE703993922022088540398006820
:104CD00040680190039800688068009001987021F6
:104CE0008843019002980168019808430190019857
:104CF0000399096848600398006801218907884280
:104D000012D0FFE703980068664988420CD0FFE79D
:104D1000039800686449884206D0FFE7039800685A
:104D2000624988420ED1FFE70098802188430090B5
:104D30000298416800980843009000980399096818
:104D40008860FFE70399392201208854FFE703991F
:104D5000382200208854FFE704A900200870FFE7EC
:104D600004A8007805B0704780B582B00090009824
:104D7000002804D1FFE701A90120087030E0009865
:104D80003921405C002808D1FFE700993822002033
:104D90008854009800F028F8FFE700993922022093
:104DA0008854009901C900F0C9FF00993E220120F2
:104DB0008854FFE700993A220120885400993B2249
:104DC000885400993C22885400993D228854FFE77A
:104DD000009939220120885401A900200870FFE7BA
:104DE00001A8007802B080BD81B0009000980068F2
:104DF0000549884206D1FFE773490868102210432D
:104E00000860FFE701B07047001000403810024012
:104E100083B0019001983921405C012804D0FFE75C
:104E200002A90120087039E0019939220220885432
:104E30000198006801218907884212D0FFE7019894
:104E40000068184988420CD0FFE7019800681649AD
:104E5000884206D0FFE7019800681449884212D1C1
:104E6000FFE70198006880680721084000900098DB
:104E7000062807D0FFE7019801680868012210435F
:104E80000860FFE706E00198016808680122104306
:104E90000860FFE702A900200870FFE702A8007879
:104EA00003B07047000400400008014000140140B6
:104EB00080B582B000900098002804D1FFE701A9D6
:104EC0000120087048E000988069002801D0FFE7C1
:104ED00000E0FFE70098C06F002808D1FFE70099C5
:104EE000782200208854009800F03AF8FFE70099F3
:104EF0002420C86700980168086801229043086070
:104F0000009801F031F9012804D1FFE701A901203F
:104F1000087021E00098406A002804D0FFE700985C
:104F200000F06EFFFFE70098016848680922D2028E
:104F3000904348600098016888682A2290438860FE
:104F4000009801680868012210430860009801F089
:104F500005F801A90870FFE701A8007802B080BD3C
:104F600080B588B0079000200690059004900390CB
:104F70000290079800681349884221D1FFE712493F
:104F800008680122520410430860FFE70F480268D6
:104F900001210A4302600068084001900198FFE780
:104FA0000C20029002200390002004900320059022
:104FB000042006900520000702A9FEF773F8FFE71A
:104FC00008B080BD00440040381002402C10024060
:104FD00010B58AB00890079106A80280059308983A
:104FE000C06F202800D09BE00798002805D0FFE77D
:104FF00006A80088002804D1FFE709A9012008704D
:1050000092E00898806801210903884210D1FFE7E7
:105010000898006900280BD1FFE707A80078C007AF
:10502000002804D0FFE709A9012008707CE0FFE711
:10503000089984220020885008992120C867FEF72B
:10504000DFF902900698089950228852069808992C
:1050500052228852089880680121090388420AD1A7
:10506000FFE708980069002805D1FFE700200490B9
:105070000798039004E00798049000200390FFE74E
:10508000FFE708985221405A002830D0FFE70898DF
:10509000029B059900918021002201F0E7FA002887
:1050A00007D0FFE708992020C86709A903200870E6
:1050B0003AE0049800280BD1FFE7039800881C49C8
:1050C00008400899096888620398801C039008E0EA
:1050D000049800780899096888620498401C049034
:1050E000FFE708995222885A401E8852C9E708985B
:1050F000029B059900914021002201F0B7FA002897
:1051000007D0FFE708992020C86709A90320087085
:105110000AE008992020C86709A90020087003E068
:1051200009A902200870FFE709A800780AB010BD9D
:10513000FF010000FFE7FEE781B0009000980068E3
:105140008069022108404008002805D0FFE7009848
:10515000016800208862FFE7009800688069C00746
:10516000002807D1FFE700980168886901221043F1
:105170008861FFE701B0704780B58AB00990089157
:10518000079206A9002008700999096889690591A4
:1051900004900798039005A80078C006002800D462
:1051A00084E0099801681020C861FFE70998006849
:1051B000806920210840410900200029009006D183
:1051C000FFE706A80078414248410090FFE70098B9
:1051D000C007002858D0FFE70898401C002852D08C
:1051E000FFE7FEF70DF90399401A0899884204D8A1
:1051F000FFE70898002845D1FFE709980068406854
:10520000012189030840029009984221405C01A9CC
:10521000087009980068806980B2C00B002816D019
:10522000FFE7029801218903884210D0FFE701A817
:10523000007820280BD0FFE7099801684868012210
:10524000920310434860FEF7DBF80390FFE7FFE7A7
:10525000099800688069202108404009002810D181
:10526000FFE7FEF7CDF80399401A1A2808D3FFE7A5
:10527000049820210843049006A90120087000E04A
:10528000E6E7FFE7FFE791E706A80078002805D1E9
:10529000FFE7099801682020C861FFE7049804210E
:1052A0000843049006A901200870FFE709980068E8
:1052B0008069059005A84078C00700280BD0FFE75B
:1052C000049901200143049109990A680102D161FE
:1052D00006A90870FFE705A84078400700280CD50C
:1052E000FFE7049808210843049009980268012008
:1052F0008102D16106A90870FFE705A84078800700
:1053000000280CD5FFE7049802210843049009986F
:10531000026801204102D16106A90870FFE706A8D2
:10532000007800281DD0FFE70998FFF705FF0998CE
:10533000016848680D4A10404860049A0999486C11
:105340001043486409994122202088540999422237
:1053500000208854FFE70999402200208854FFE785
:10536000FFE706A800780AB080BDC04600E800FE4E
:1053700010B585B0079C049003A8018002A90A70AB
:10538000019300880D4A10400978090440180199DA
:105390000843079908430121C907884300900498EE
:1053A000006840680799490D8843054908400099FD
:1053B000084304990968486005B010BDFF03000068
:1053C000009C00FC10B586B0089C0490039102A8D4
:1053D00002700193FFE70498006880690399084010
:1053E000401A4142484102A90978884237D1FFE773
:1053F0000198401C002831D0FFE7FEF701F808991A
:10540000401A0199884204D8FFE70198002824D166
:10541000FFE704980068806903990840401A4142F8
:10542000484102A90978884216D1FFE7049A516CD5
:105430002020014351640499412288540499422256
:1054400000208854FFE70499402200208854FFE799
:1054500005A90120087006E0FFE7FFE7BBE705A903
:1054600000200870FFE705A8007806B010BD80B5E1
:1054700084B0029001910092FFE702980068806971
:10548000202108404009002839D1FFE702980199FE
:10549000009AFFF771FE002804D0FFE703A901205E
:1054A000087030E0FDF7ACFF0099401A019988427E
:1054B00004D8FFE70198002820D1FFE70298006890
:1054C0008069202108404009002816D1FFE7029A90
:1054D000516C202001435164029941228854029961
:1054E000422200208854FFE702994022002088547D
:1054F000FFE703A90120087005E0FFE7BDE703A966
:1055000000200870FFE703A8007804B080BD80B5D4
:1055100084B0029001910092FFE7029800688069D0
:1055200002210840400800283FD1FFE70298019976
:10553000009AFFF721FE002804D0FFE703A901200D
:10554000087036E00198401C00282DD0FFE7FDF7D9
:1055500057FF0099401A0199884204D8FFE7019843
:10556000002820D1FFE702980068806902210840E6
:105570004008002816D1FFE7029A516C2020014311
:105580005164029941228854029942220020885491
:10559000FFE70299402200208854FFE703A9012079
:1055A000087006E0FFE7FFE7B7E703A900200870EF
:1055B000FFE703A8007804B080BD000080B582B08A
:1055C0000D4801900D49016050210161012109023E
:1055D000C160002181614161082282604160112126
:1055E000C161FDF7DFFA002803D0FFE7FDF7A6FA57
:1055F000FFE702B080BDC046980400201C000140B7
:10560000B0B590B000200F900E900D900C900B90C4
:10561000FFE73748026804210A4302600068084037
:105620000A900A98FFE7FFE73148026880210A43A1
:1056300002600068084009900998FFE7FFE72C48DE
:10564000026801210A430260006808400890089837
:10565000FFE7FFE72648026802210A43026000686C
:10566000084007900798FFE7052001900007059084
:105670000921490100220492FDF79EFE0198049A37
:10568000C4011C4802902146FDF796FE0298049939
:105690000122039252030B92212212040C920D91CB
:1056A0000BA90691FDF7FEFC039B049A0598069949
:1056B00020250B950C930D920E92FDF7F3FC0298AA
:1056C000039B049A06990B940C930D920E92FDF78E
:1056D000E9FC039B049A059806991C020B940C9311
:1056E0000D9202220E92FDF7DDFC10B0B0BDC04657
:1056F0002C1002400008005080B582B0D7480190BD
:105700001549016015494160002181600122C26094
:10571000016141618161C1610162FDF713FF0028F0
:1057200003D0FFE7FDF70AFAFFE7CC480021FDF7B9
:105730006DFE002803D0FFE7FDF700FAFFE7C7483A
:105740000021FDF7AEFE002803D0FFE7FDF7F6F9D4
:10575000FFE702B080BDC04600540040380F300063
:1057600080B582B00021019100911048104A02607A
:105770003222426081600F4AC2604161FFF7F4FA51
:10578000002803D0FFE7FDF7D9F9FFE700200090DC
:10579000019006486946FFF781FA002803D0FFE729
:1057A000FDF7CCF9FFE702B080BDC046140500202C
:1057B00000100040FFFF000080B582B00D4801904E
:1057C0000D490160E1214902416000218160C16011
:1057D00001610C2242618161C16101624162FFF796
:1057E00067FB002803D0FFE7FDF7A8F9FFE702B049
:1057F00080BDC0465405002000440040FFE7FEE79E
:105800007047000083B0034602A8038001AB1980F3
:1058100069460A7000887F2805DCFFE701A8008838
:10582000402801DBFFE731E0CA480079002806D0B4
:10583000FFE769460878424250410870FFE7684632
:105840000078012811D1FFE701A801880722084646
:1058500010400123834002A80088C908C9014218EA
:10586000EA49885C1843885410E001A8018807229F
:10587000084610400123834002A80088C908C901D6
:105880004218E249885C98438854FFE703B07047A8
:1058900080B584B0014603A8017001780191FF2012
:1058A0000029029001D101980290029AD748012163
:1058B0008902FAF7C9FD04B080BDC04682B001AAD2
:1058C0001080684601800198A249088000984880AD
:1058D00002B0704780B586B001F0C0F85F4878210B
:1058E00001225F4BFDF7B4FE002804D0FFE705A9B5
:1058F00000200870ADE05B480490FFE704980028A2
:1059000004D0FFE70498401E0490F7E77820029047
:1059100000210391AE2201F0B1F8029803992022F0
:10592000019201F0ABF8029803991022009201F065
:10593000A5F802980399B02201F0A0F80298039903
:10594000C82201F09BF80298039A114601F096F8DC
:10595000009A0298039901F091F802980399402265
:1059600001F08CF802980399812201F087F80298DF
:105970000399FF2201F082F802980399A12201F015
:105980007DF802980399A62201F078F8029803990D
:10599000A82201F073F8029803993F2201F06EF8F3
:1059A00002980399A42201F069F802980399D3227E
:1059B00001F064F80298039A114601F05FF802982A
:1059C0000399D52201F05AF802980399F02201F0C8
:1059D00055F802980399D92201F050F802980399DA
:1059E000222201F04BF802980399DA2201F046F8DE
:1059F00002980399122201F041F802980399DB22E0
:105A000001F03CF8019A0298039901F037F80298E6
:105A100003998D2201F032F802980399142201F0C3
:105A20002DF802980399AF2201F028F80298039903
:105A30002E2201F023F80398FFF72AFF00F0B6F8B2
:105A400003984449088048800120487105A90870DE
:105A5000FFE705A8007806B080BDC046C00400205E
:105A6000204E0000C409000080B588B006AB187055
:105A7000059104A8027037480088059909784018F4
:105A80007F2808DCFFE733484088059949784018AB
:105A9000402804DBFFE707A90020087056E000203B
:105AA0000390FFE7039805994978884244D2FFE7BD
:105AB0000599486806AA1278203A49785143039A12
:105AC00089184900405A029000200190FFE7019890
:105AD0000599097888422AD2FFE7029801998840FF
